:020000040000fa
:10000000f03f00200d0b0000af0c0000b10c000011
:1000100000000000000000000000000000000000e0
:10002000000000000000000000000000ad0c000017
:100030000000000000000000ad0c0000ad0c00004e
:10004000ad0c0000ad0c0000ad0c0000ad0c0000cc
:10005000ad0c0000ad0c0000ad0c00000000000075
:10006000ad0c00007105000005040000d90000007f
:10007000850200000000000000000000ad0c000040
:10008000ad0c0000ad0c0000ad0c0000ad0c00008c
:10009000ad0c00000000000000000000ad0c0000ee
:1000a000ad0c0000ad0c00000000000000000000de
:0800b000ad0c0000ad0c0000d6
:020000040000fa
:1000b800f8b5c046f8bc08bc9e467047ed0a00007b
:1000c800f8b5c046f8bc08bc9e467047c50a000093
:020000040000fa
:1000d80010b5684b9b7d002b17d0664b5b8b9b073d
:1000e80014d5654b2022ff2199540132fd399954ca
:1000f800614a2023d35c5bb2013300d18ae05e4ab7
:100108002023d35c062b00d19ce010bd594b5b8ba0
:10011800db0707d5584b2022ff2199540132fd39be
:100128009954e5e7534b5b8b5b0707d5524b20226d
:10013800ff2199540132fe399954d9e74e4a2023b8
:10014800d35c5bb2032b43d0042b0fd0022bcfd14f
:100158001369002b04d09088002100f085fcc7e7c4
:10016800454b9888012100f07ffcc1e7424a93691a
:10017800126993420bd0404a9168581c9061c95c3f
:100188003c4a2823d154d369002bfcd1b0e73a4b21
:100198005b69002b0ed0384b9b885b000122134310
:1001a800344a5362d369002bfcd1334a20330321ec
:1001b800d1549de72f4a5168c0239b020b435360db
:1001c800d369002bfcd12c4a20330621d1548fe768
:1001d800294a5369013bd2699a420dd0254ad3690d
:1001e800002bfcd1244bd968da69501cd86121480e
:1001f8002823c35c8b547be71e4a5168e023db024b
:100208000b435360d369002bfcd11b4a20330621d2
:10021800d154e3e720230021d154164a5168c02362
:100228009b020b435360d369002bfcd1114b8322f3
:100238001a76114b5b6a002b00d166e70e4a906a6a
:10024800984762e71300002220215a5401315a547a
:10025800084b83321a761900533a4b8b1340102bf4
:10026800fbd1054b5b6a002b00d14ee7024a906a2e
:0c02780098474ae70010004230000020c8
:020000040000fa
:10028400f8b5ce46474680b55b4b9b7d002b17d017
:10029400594a137edbb2927d52b2002a14db564acd
:1002a400137edbb2927dd20702d5db0700d588e04e
:1002b400514a137edbb2927d520701d55b0752d4bb
:1002c4000cbc90469946f8bd5bb2002be7da4a4b6a
:1002d4005b8b07221340e2d0484ce38500f0b4fc6a
:1002e400454b84221a752c230022e254636a002ba6
:1002f400d5d0424a906a9847d1e78368591c8160f7
:100304006146cb5c1385b168137e4d462b420fd0fa
:100314008c420dd953683b40012beed143469b6878
:10032400591c4546a9605b0061465b5a1385eae7a0
:10033400324b9a685b689a42bad3304b00221a75e2
:100344005a602d4a01211175db68002bb0d02b4a6d
:1003540010699847ace7294988690a6a541c0c62f9
:100364005200135217e0254a2c23d35c002ba7d04c
:10037400224b1a6adb699a42a2d21f4a138d9bb29e
:10038400516807220a40012ae5d01c4a9069116a83
:100394004c1c14624354194b1a6adb699a4200d00c
:1003a4008ee7164b00222c215a54da61124a583136
:1003b40011755b6a002b00d182e7104a906a984756
:1003c4007ee70e4b1b7d002b00d171e70b4b9a6827
:1003d4005c68094b1b7edb07aad5a242a8d2074b57
:1003e4001b689c46044a0727044b984618001e00c5
:1003f400012399468ee7c046001400420000002005
:020000040000fa
:1004040010b5564b9b7d002b53d0544a516807239b
:100414000b40127e52075bd5504a906a50494a6994
:10042400c9688a4254d2002b44d14d4b5968541c9c
:100434005c618854494b1b7edb0718d5474b01226e
:100444001a75474b9a699b689a4258d2444b19686b
:10045400501c98618a5c414b9a62414b9a699b6833
:100464009a4262d03e4b5a69db689a4269d03b4b50
:100474001b7e9b0716d53b4b1b78002b19d0384ba2
:100484005a69db689a4211d1354b00221a773349f5
:100494000720087533490a701b6a002b09d0304abb
:1004a400506a98472f4b1b78002b02d02b4b02220b
:1004b4009a7510bd2a4b5968541c5c615200505205
:1004c400264b1b7edb07d2d5244b01221a7508e08c
:1004d400224a127ed207cad5204a01211175002b67
:1004e400afd01f4a93699268934213d21c4a116891
:1004f400581c90615b005a5a184b9a62ade7184b2e
:100504001b69002b23d0154aff219162013b144a39
:100514001361a2e7124b1b69002b18d00f4a124932
:100524009162013b0e4a136197e70d4b1b69002b47
:1005340098d10c4b01221a70084b1b7e9b079ed44a
:10054400b4e7064b01229a7503321a758fe7044b00
:100554009a699b689a4200d084e7eae7000c00425b
:0c0564005c000020d4000020ffff00001d
:020000040000fa
:1005700010b5564b9b7d002b53d0544a516807232e
:100580000b40127e52075bd5504a906a50494a6927
:10059000c9688a4254d2002b44d14d4b5968541c2f
:1005a0005c618854494b1b7edb0718d5474b012201
:1005b0001a75474b9a699b689a4258d2444b1968fe
:1005c000501c98618a5c414b9a62414b9a699b68c6
:1005d0009a4262d03e4b5a69db689a4269d03b4be3
:1005e0001b7e9b0716d53b4b1b78002b19d0384b35
:1005f0005a69db689a4211d1354b00221a77334988
:100600000720087533490a701b6a002b09d0304a4d
:10061000506a98472f4b1b78002b02d02b4b02229d
:100620009a7510bd2a4b5968541c5c615200505297
:10063000264b1b7edb07d2d5244b01221a7508e01e
:10064000224a127ed207cad5204a01211175002bf9
:10065000afd01f4a93699268934213d21c4a116823
:10066000581c90615b005a5a184b9a62ade7184bc0
:100670001b69002b23d0154aff219162013b144acc
:100680001361a2e7124b1b69002b18d00f4a1249c5
:100690009162013b0e4a136197e70d4b1b69002bda
:1006a00098d10c4b01221a70084b1b7e9b079ed4dd
:1006b000b4e7064b01229a7503321a758fe7044b93
:1006c0009a699b689a4200d084e7eae700080042f2
:0c06d00088000020d5000020ffff000083
:020000040000fa
:1006dc00264a136a26490b4042210b431362082316
:1006ec00d1680b42fcd0214b00229a619a8c80215c
:1006fc008a439a841a001023d1680b42fcd01d4bfc
:10070c001a68920e3f2a2ed01b4b1b689b059b0d23
:10071c0092021343154a93621023d1680b42fcd00a
:10072c00124b02229a841a001023d1680b42fcd07f
:10073c00124b134a5a601a0053785bb2002bfbdb46
:10074c000e4b104a5a80104a5a80104a5a80104a4e
:10075c005a80104a5a80104a5a80104a5a80104bbc
:10076c00104a1a627047203acee7c0460008004093
:10077c000000ffcf2460800028608000000c004047
:10078c000007010013400000144000001540000059
:10079c0016400000174000002040000021400000df
:0807ac00000400403c000500c0
:020000040000fa
:1007b40010b5244b8022d2011a60012242215a54de
:1007c40040394320195401301a5401301a5401306d
:1007d4001a5401301a5401301a5401301a54013099
:1007e40019540130195400204e2418550134195558
:1007f4000134195501341a5501341a5501341a5566
:10080400033419550134195556315a5401315a5487
:1008140028395a54323201315a549a5402315a54b2
:1008240005321439995402311e3c195503341955b3
:100834005e315a508b329854013298540132985494
:0808440010bdc0460044004154
:020000040000fa
:10084c00f0b5c6461f4a204b00b50021934203d297
:10085c00197001339342fbd10b231c4a9c46083b75
:10086c0098461368546819000026214311d01700cc
:10087c0091680c3700290fd11a19002c03d01e7067
:10088c0001339342fbd13a00136854681900214399
:10089c00edd104bc9046f0bd6146c91a1d19511822
:1008ac00002c05d05a1c505c187013009542f9d1dd
:1008bc00434623405a1e9341a4081c19a4003f1917
:1008cc003a00e1e70000002000000020dc080000f6
:020000040000fa
:1008dc00b40000201c0000000000000030000020cc
:1008ec002c00000000000000d400002001000000db
:1008fc00000000005c0000202c0000000000000044
:10090c00d50000200100000000000000880000203d
:10091c002c0000000000000000000020300000004f
:10092c0000000000d00000200400000000000000c7
:10093c00000000000000000022222222222222229b
:020000040000fa
:10094c00bff35f8f62b6164bc222920099581548be
:10095c000840c02109020143995080218900196087
:10096c00995811480840c02109040143995080212d
:10097c00c900196099580902090ac02000060143f0
:10098c009950802212011a60c32189005a58ff2005
:10099c0082433f3802435a50802252011a607047fa
:0c09ac0000e100e0ff00ffffffff00ff84
:020000040000fa
:1009b800144b01221a601a00d369002bfcd1114b89
:1009c800802252005a601a00d369002bfcd10d4bcb
:1009d800e822da600c4a1a601a00d369002bfcd1ad
:1009e800084b10225a831a00d369002bfcd1074bfd
:1009f800002221215a5401395a54024b83329a75e4
:100a08007047c04600100042160010003000002059
:020000040000fa
:100a1800114b124a1a60124a9a81c02292025a60f5
:100a28001a00d369002bfcd10b4a136802210b432f
:100a38001360d369002bfcd10a4b00229a61da615a
:100a48001a622c215a545a621a605a609a601a75ae
:100a5800da60da857047c04600140042040131406c
:080a68002bf6ffff0000002047
:020000040000fa
:100a700010b5114b00229a61da61104b83321a765d
:100a80005a680f4c22405a601a00d369002bfcd1df
:100a900000290cd0084a20330324d45440000843d2
:100aa000064b58621a00d369002bfcd110bd024ad4
:100ab00020230424d454f1e7300000200010004229
:040ac000fffffbff3a
:020000040000fa
:100ac40010b5064c2378002b07d1054b002b02d020
:100ad400044800e000bf0123237010bdb4000020cf
:100ae4000000000000000000044b10b5002b03d0f0
:100af4000349044800e000bf10bdc04600000000e8
:080b0400b80000200000000011
:020000040000fa
:100b0c0010b50a4b98470a4b9847fff799fe094bcb
:100b1c00ff229343084a9360084b9847084b984729
:100b2c00084b984700f0b6f8fee7c046b30c00003f
:100b3c00b30c00000000000000ed00e0550b0000bd
:080b4c00b30c0000b30c000023
:020000040000fa
:100b540070b500260c4d0d4c641ba410a64209d19f
:100b64000026fff7a7fa0a4d0a4c641ba410a642fc
:100b740005d170bdb300eb5898470136eee7b300da
:100b8400eb5898470136f2e7c4000000c4000000a7
:080b9400c4000000c8000000cd
:020000040000fa
:100b9c000b4b00221a621a779a60da60094b80229a
:100bac0092015a601a00d369002bfcd1054b172215
:100bbc001a73054a1a601a00d369002bfcd17047ce
:0c0bcc005c000020000c00420e00021033
:020000040000fa
:100bd8000b4b00221a621a779a60da60094b882256
:100be80092025a601a00d369002bfcd1054b1722d8
:100bf8001a73054a1a601a00d369002bfcd1704792
:0c0c080088000020000800420e002300bd
:020000040000fa
:100c140010b50c4b06225a60fff7cafdfff75cfdc6
:100c2400fff7f8fe00f034f8fff7c4fefff7b4ff57
:100c340000f039f8fff7ceff00f01cf8fff784fe50
:080c440010bdc0460040004154
:020000040000fa
:100c4c00094b5b8b5b070dd0074b80221a76793ae8
:100c5c005a831b7e5b0705d5034b04211a8d1a7e24
:0c0c6c000a42fbd17047c0460014004251
:020000040000fa
:100c7800054b41225a7000229a7002321a701a00eb
:0c0c8800d379002bfcd1704700480042db
:020000040000fa
:0c0c9400014b82225a6070470040004172
:020000040000fa
:0a0ca00010b50020fff7b6fffee7d5
:020000040000fa
:020caa00704791
:020000040000fa
:020cac00fee761
:020000040000fa
:020cae00fee75f
:020000040000fa
:020cb000fee75d
:020000040000fa
:020cb200704789
:020000040000fa
:0200000400807a
:0440000077c700d8a6
:020000040000fa
:0200000400807a
:044004005c00ffff5e
:00000001FF
